:020000040800F2
:1000000000A000205D030008AD030008AD03000858
:10001000AD030008AD030008AD03000800000000B8
:10002000000000000000000000000000AD03000818
:100030000000000000000000AD030008AD03000850
:10004000AD030008AD030008AD030008AD030008D0
:10005000AD030008AD030008AD030008AD030008C0
:10006000AD030008AD030008AD030008AD030008B0
:10007000AD030008AD030008AD030008AD030008A0
:10008000AD030008AD030008AD030008AD03000890
:10009000AD030008AD030008AD030008AD03000880
:1000A000AD030008AD030008AD030008AD03000870
:1000B000AD030008AD030008AD030008AD03000860
:1000C000AD030008AD030008AD030008AD03000850
:1000D000AD030008AD030008AD030008AD03000840
:1000E000AD030008AD030008AD030008AD03000830
:1000F000AD030008AD030008AD030008AD03000820
:10010000AD0300080000000000000000AD0300087F
:10011000AD030008AD0300083D030008AD0300086F
:10012000AD030008AD030008AD030008AD030008EF
:10013000AD030008AD03000800000000000000004F
:10014000AD030008AD030008AD0300080000000087
:10015000000000000000000000000000000000009F
:10016000AD030008AD030008AD030008AD030008AF
:10017000AD030008AD030008AD030008AD0300089F
:10018000AD030008000000000000000000000000B7
:04019000AD030008B3
:1001940082B0002301930093274A136843F4803309
:1001A4001360254B1B6803F400330093019B013358
:1001B4000193009B1BB9019BB3F5A06FF1D11E4BBA
:1001C4001B6813F4003F06D001230093009B012B0E
:1001D40004D002B0704700230093F7E7174B1222B4
:1001E4001A60A3F580535A685A605A685A605A686C
:1001F40042F480625A605A6822F47C125A605A6847
:1002040042F4E8125A601A6842F080721A600A4B8B
:100214001B6813F0007FFAD0074B5A6822F00302E0
:100224005A605A6842F002025A60034B5B6803F05A
:100234000C03082BF9D1CCE7001002400020024047
:1002440008B5154AD2F8883043F47003C2F88830F0
:10025400124B1A6842F001021A605968104A0A40A7
:100264005A601A6822F0847222F480321A601A6882
:1002740022F480221A605A6822F4FE025A60DA6A72
:1002840022F00F02DA62196B064A0A401A6300224E
:100294009A60FFF77DFF08BD00ED00E0001002400A
:1002A4000CC07FF8CCFC00FF094B5A6942F40012E1
:1002B4005A615A6942F400125A61064B1A6842F4B0
:1002C40080321A605A6942F480725A61704700BFE2
:1002D4000010024000100048114AD36943F0100393
:1002E400D361104BDA6842F00102DA600E4A202131
:1002F40082F836134FF48001516044F62062DA62CA
:1003040040F698029A621A6922F001021A615A6947
:1003140042F001025A611A6842F001021A60704701
:10032400001002400010004000E100E008B5FFF7B3
:10033400BBFFFFF7D1FFFEE7044B6FF001021A6128
:10034400034A536983F4807353617047001000407B
:1003540000100048704700000D488546FFF770FF05
:100364000C480D490D4A002302E0D458C45004330C
:10037400C4188C42F9D30A4A0A4C002301E01360E2
:100384000432A242FBD300F011F8FFF7CFFFFEE7DF
:1003940000A000200000002000000020F803000856
:1003A4000000002000000020FEE7000070B50D4DA5
:1003B4000D4C641BA4100026A64209D10B4D0C4C15
:1003C400FFF7C8FF641BA4100026A64205D170BD28
:1003D40055F8043B98470136EEE755F8043B984737
:1003E4000136F2E7F8030008F8030008F8030008F0
:0403F400F803000802
:040000050800035D8F
:00000001FF
